:060000000A128A1100291A
:10000800F000030EF1001B21880A710E8300F00E28
:02001800700E68
:10020000212107210E212C21031383120629031318
:1002100083160F140F178F160F120800031383167F
:1002200081128111011581140114031383123D30D1
:1002300081000B110800031383123D3081000B1164
:1002400008000317831688018901031383168801A8
:100250000313831288010800031383128B178B1674
:040260000B11080076
:04400E00C430FF3F7C
:00000001FF
